{
  "_format": "hh-sol-artifact-1",
  "contractName": "Raffle",
  "sourceName": "contracts/Raffle.sol",
  "abi": [
    {
      "inputs": [
        {
          "internalType": "uint256",
          "name": "entranceFee",
          "type": "uint256"
        },
        {
          "internalType": "uint64",
          "name": "subscriptionId",
          "type": "uint64"
        },
        {
          "internalType": "uint256",
          "name": "updateInterval",
          "type": "uint256"
        },
        {
          "internalType": "address",
          "name": "vrfconsumer",
          "type": "address"
        },
        {
          "internalType": "bytes32",
          "name": "keyHash",
          "type": "bytes32"
        }
      ],
      "stateMutability": "nonpayable",
      "type": "constructor"
    },
    {
      "inputs": [
        {
          "internalType": "address",
          "name": "have",
          "type": "address"
        },
        {
          "internalType": "address",
          "name": "want",
          "type": "address"
        }
      ],
      "name": "OnlyCoordinatorCanFulfill",
      "type": "error"
    },
    {
      "inputs": [],
      "name": "Raffle__NotEnoughETHEntered",
      "type": "error"
    },
    {
      "inputs": [],
      "name": "Raffle__NotOpen",
      "type": "error"
    },
    {
      "inputs": [],
      "name": "Raffle__TransferFailed",
      "type": "error"
    },
    {
      "inputs": [
        {
          "internalType": "uint256",
          "name": "currentBalance",
          "type": "uint256"
        },
        {
          "internalType": "uint256",
          "name": "numPlayers",
          "type": "uint256"
        },
        {
          "internalType": "uint256",
          "name": "raffleState",
          "type": "uint256"
        }
      ],
      "name": "Raffle__UpkeepNotNeeded",
      "type": "error"
    },
    {
      "anonymous": false,
      "inputs": [
        {
          "indexed": true,
          "internalType": "address",
          "name": "player",
          "type": "address"
        }
      ],
      "name": "RaffleEnter",
      "type": "event"
    },
    {
      "anonymous": false,
      "inputs": [
        {
          "indexed": true,
          "internalType": "uint256",
          "name": "requestId",
          "type": "uint256"
        }
      ],
      "name": "RequestRaffleWinner",
      "type": "event"
    },
    {
      "anonymous": false,
      "inputs": [
        {
          "indexed": true,
          "internalType": "address",
          "name": "winner",
          "type": "address"
        }
      ],
      "name": "WinnerPicked",
      "type": "event"
    },
    {
      "inputs": [],
      "name": "callbackGasLimit",
      "outputs": [
        {
          "internalType": "uint32",
          "name": "",
          "type": "uint32"
        }
      ],
      "stateMutability": "view",
      "type": "function"
    },
    {
      "inputs": [
        {
          "internalType": "bytes",
          "name": "",
          "type": "bytes"
        }
      ],
      "name": "checkUpkeep",
      "outputs": [
        {
          "internalType": "bool",
          "name": "upkeepNeeded",
          "type": "bool"
        },
        {
          "internalType": "bytes",
          "name": "",
          "type": "bytes"
        }
      ],
      "stateMutability": "view",
      "type": "function"
    },
    {
      "inputs": [],
      "name": "enterRaffle",
      "outputs": [],
      "stateMutability": "payable",
      "type": "function"
    },
    {
      "inputs": [],
      "name": "getEntranceFee",
      "outputs": [
        {
          "internalType": "uint256",
          "name": "",
          "type": "uint256"
        }
      ],
      "stateMutability": "view",
      "type": "function"
    },
    {
      "inputs": [],
      "name": "getInterval",
      "outputs": [
        {
          "internalType": "uint256",
          "name": "",
          "type": "uint256"
        }
      ],
      "stateMutability": "view",
      "type": "function"
    },
    {
      "inputs": [],
      "name": "getLatestTimeStamp",
      "outputs": [
        {
          "internalType": "uint256",
          "name": "",
          "type": "uint256"
        }
      ],
      "stateMutability": "view",
      "type": "function"
    },
    {
      "inputs": [],
      "name": "getNumberOfPlayers",
      "outputs": [
        {
          "internalType": "uint256",
          "name": "",
          "type": "uint256"
        }
      ],
      "stateMutability": "view",
      "type": "function"
    },
    {
      "inputs": [
        {
          "internalType": "uint256",
          "name": "index",
          "type": "uint256"
        }
      ],
      "name": "getPlayer",
      "outputs": [
        {
          "internalType": "address",
          "name": "",
          "type": "address"
        }
      ],
      "stateMutability": "view",
      "type": "function"
    },
    {
      "inputs": [],
      "name": "getRaffleState",
      "outputs": [
        {
          "internalType": "enum Raffle.RaffleState",
          "name": "",
          "type": "uint8"
        }
      ],
      "stateMutability": "view",
      "type": "function"
    },
    {
      "inputs": [],
      "name": "getRecentWinner",
      "outputs": [
        {
          "internalType": "address",
          "name": "",
          "type": "address"
        }
      ],
      "stateMutability": "view",
      "type": "function"
    },
    {
      "inputs": [],
      "name": "numWords",
      "outputs": [
        {
          "internalType": "uint32",
          "name": "",
          "type": "uint32"
        }
      ],
      "stateMutability": "view",
      "type": "function"
    },
    {
      "inputs": [
        {
          "internalType": "bytes",
          "name": "",
          "type": "bytes"
        }
      ],
      "name": "performUpkeep",
      "outputs": [],
      "stateMutability": "nonpayable",
      "type": "function"
    },
    {
      "inputs": [
        {
          "internalType": "uint256",
          "name": "requestId",
          "type": "uint256"
        },
        {
          "internalType": "uint256[]",
          "name": "randomWords",
          "type": "uint256[]"
        }
      ],
      "name": "rawFulfillRandomWords",
      "outputs": [],
      "stateMutability": "nonpayable",
      "type": "function"
    },
    {
      "inputs": [],
      "name": "requestConfirmations",
      "outputs": [
        {
          "internalType": "uint16",
          "name": "",
          "type": "uint16"
        }
      ],
      "stateMutability": "view",
      "type": "function"
    },
    {
      "inputs": [],
      "name": "s_keyHash",
      "outputs": [
        {
          "internalType": "bytes32",
          "name": "",
          "type": "bytes32"
        }
      ],
      "stateMutability": "view",
      "type": "function"
    },
    {
      "inputs": [],
      "name": "s_subscriptionId",
      "outputs": [
        {
          "internalType": "uint64",
          "name": "",
          "type": "uint64"
        }
      ],
      "stateMutability": "view",
      "type": "function"
    }
  ],
  "bytecode": "0x61010060405260038060006101000a81548161ffff021916908361ffff160217905550620186a0600360026101000a81548163ffffffff021916908363ffffffff1602179055506001600360066101000a81548163ffffffff021916908363ffffffff16021790555034801561007457600080fd5b506040516119183803806119188339818101604052810190610096919061028b565b818073ffffffffffffffffffffffffffffffffffffffff1660808173ffffffffffffffffffffffffffffffffffffffff1681525050508173ffffffffffffffffffffffffffffffffffffffff1660a08173ffffffffffffffffffffffffffffffffffffffff168152505083600160006101000a81548167ffffffffffffffff021916908367ffffffffffffffff1602179055508460c0818152505060006003601e6101000a81548160ff0219169083600181111561015757610156610306565b5b0217905550426004819055508260e08181525050806002819055505050505050610335565b600080fd5b6000819050919050565b61019481610181565b811461019f57600080fd5b50565b6000815190506101b18161018b565b92915050565b600067ffffffffffffffff82169050919050565b6101d4816101b7565b81146101df57600080fd5b50565b6000815190506101f1816101cb565b92915050565b600073ffffffffffffffffffffffffffffffffffffffff82169050919050565b6000610222826101f7565b9050919050565b61023281610217565b811461023d57600080fd5b50565b60008151905061024f81610229565b92915050565b6000819050919050565b61026881610255565b811461027357600080fd5b50565b6000815190506102858161025f565b92915050565b600080600080600060a086880312156102a7576102a661017c565b5b60006102b5888289016101a2565b95505060206102c6888289016101e2565b94505060406102d7888289016101a2565b93505060606102e888828901610240565b92505060806102f988828901610276565b9150509295509295909350565b7f4e487b7100000000000000000000000000000000000000000000000000000000600052602160045260246000fd5b60805160a05160c05160e0516115956103836000396000818161088401526109370152600081816103ac01526104bf015260006106ee0152600081816103e9015261043d01526115956000f3fe6080604052600436106100f35760003560e01c8063473f1ddc1161008a57806391ad27b41161005957806391ad27b4146102ea578063b0fb162f14610315578063e55ae4e814610340578063fd6673f51461037d576100f3565b8063473f1ddc1461022b5780636e04ff0d146102565780637ccfd7fc146102945780638ac00021146102bf576100f3565b80632cfcc539116100c65780632cfcc539146101a2578063320229eb146101ac5780634585e33b146101d757806345bb327b14610200576100f3565b806309bc33a7146100f8578063115cbaf5146101235780631fe543e31461014e57806324f7469714610177575b600080fd5b34801561010457600080fd5b5061010d6103a8565b60405161011a9190610cb3565b60405180910390f35b34801561012f57600080fd5b506101386103d0565b6040516101459190610d45565b60405180910390f35b34801561015a57600080fd5b5061017560048036038101906101709190610ef9565b6103e7565b005b34801561018357600080fd5b5061018c6104a7565b6040516101999190610f74565b60405180910390f35b6101aa6104bd565b005b3480156101b857600080fd5b506101c161062c565b6040516101ce9190610cb3565b60405180910390f35b3480156101e357600080fd5b506101fe60048036038101906101f99190610fea565b610636565b005b34801561020c57600080fd5b50610215610811565b6040516102229190611050565b60405180910390f35b34801561023757600080fd5b50610240610817565b60405161024d91906110ac565b60405180910390f35b34801561026257600080fd5b5061027d6004803603810190610278919061117c565b610841565b60405161028b92919061125f565b60405180910390f35b3480156102a057600080fd5b506102a9610903565b6040516102b69190610f74565b60405180910390f35b3480156102cb57600080fd5b506102d4610919565b6040516102e191906112b2565b60405180910390f35b3480156102f657600080fd5b506102ff610933565b60405161030c9190610cb3565b60405180910390f35b34801561032157600080fd5b5061032a61095b565b60405161033791906112ea565b60405180910390f35b34801561034c57600080fd5b5061036760048036038101906103629190611305565b61096f565b60405161037491906110ac565b60405180910390f35b34801561038957600080fd5b506103926109b6565b60405161039f9190610cb3565b60405180910390f35b60007f0000000000000000000000000000000000000000000000000000000000000000905090565b60006003601e9054906101000a900460ff16905090565b7f000000000000000000000000000000000000000000000000000000000000000073ffffffffffffffffffffffffffffffffffffffff163373ffffffffffffffffffffffffffffffffffffffff161461049957337f00000000000000000000000000000000000000000000000000000000000000006040517f1cf993f4000000000000000000000000000000000000000000000000000000008152600401610490929190611332565b60405180910390fd5b6104a382826109c2565b5050565b600360029054906101000a900463ffffffff1681565b7f0000000000000000000000000000000000000000000000000000000000000000341015610517576040517fbd4e069500000000000000000000000000000000000000000000000000000000815260040160405180910390fd5b6000600181111561052b5761052a610cce565b5b6003601e9054906101000a900460ff16600181111561054d5761054c610cce565b5b14610584576040517f1425571c00000000000000000000000000000000000000000000000000000000815260040160405180910390fd5b6000339080600181540180825580915050600190039060005260206000200160009091909190916101000a81548173ffffffffffffffffffffffffffffffffffffffff021916908373ffffffffffffffffffffffffffffffffffffffff1602179055503373ffffffffffffffffffffffffffffffffffffffff167f0805e1d667bddb8a95f0f09880cf94f403fb596ce79928d9f29b74203ba284d460405160405180910390a2565b6000600454905090565b600061065060405180602001604052806000815250610841565b509050806106bf57476000805490506003601e9054906101000a900460ff16600181111561068157610680610cce565b5b6040517f584327aa0000000000000000000000000000000000000000000000000000000081526004016106b69392919061135b565b60405180910390fd5b60016003601e6101000a81548160ff021916908360018111156106e5576106e4610cce565b5b021790555060007f000000000000000000000000000000000000000000000000000000000000000073ffffffffffffffffffffffffffffffffffffffff16635d3b1d30600254600160009054906101000a900467ffffffffffffffff16600360009054906101000a900461ffff16600360029054906101000a900463ffffffff16600360069054906101000a900463ffffffff166040518663ffffffff1660e01b8152600401610799959493929190611392565b6020604051808303816000875af11580156107b8573d6000803e3d6000fd5b505050506040513d601f19601f820116820180604052508101906107dc91906113fa565b9050807fde6349b018d6c03d837b67d9a198a6ba4842546f2295fe963fae141e5dbaef8160405160405180910390a250505050565b60025481565b60006003600a9054906101000a900473ffffffffffffffffffffffffffffffffffffffff16905090565b6000606060006003601e9054906101000a900460ff16600181111561086957610868610cce565b5b6000600181111561087d5761087c610cce565b5b14905060007f0000000000000000000000000000000000000000000000000000000000000000600454426108b19190611456565b119050600080600080549050119050600080471190508380156108d15750825b80156108da5750815b80156108e35750805b955085604051806020016040528060008152509550955050505050915091565b600360069054906101000a900463ffffffff1681565b600160009054906101000a900467ffffffffffffffff1681565b60007f0000000000000000000000000000000000000000000000000000000000000000905090565b600360009054906101000a900461ffff1681565b60008082815481106109845761098361148a565b5b9060005260206000200160009054906101000a900473ffffffffffffffffffffffffffffffffffffffff169050919050565b60008080549050905090565b60008080549050826000815181106109dd576109dc61148a565b5b60200260200101516109ef91906114e8565b90506000808281548110610a0657610a0561148a565b5b9060005260206000200160009054906101000a900473ffffffffffffffffffffffffffffffffffffffff169050806003600a6101000a81548173ffffffffffffffffffffffffffffffffffffffff021916908373ffffffffffffffffffffffffffffffffffffffff16021790555060006003601e6101000a81548160ff02191690836001811115610a9a57610a99610cce565b5b0217905550600067ffffffffffffffff811115610aba57610ab9610db6565b5b604051908082528060200260200182016040528015610ae85781602001602082028036833780820191505090505b5060009080519060200190610afe929190610bf3565b504260048190555060008173ffffffffffffffffffffffffffffffffffffffff1647604051610b2c9061154a565b60006040518083038185875af1925050503d8060008114610b69576040519150601f19603f3d011682016040523d82523d6000602084013e610b6e565b606091505b5050905080610ba9576040517fa1d04b3900000000000000000000000000000000000000000000000000000000815260040160405180910390fd5b8173ffffffffffffffffffffffffffffffffffffffff167f5b690ec4a06fe979403046eaeea5b3ce38524683c3001f662c8b5a829632f7df60405160405180910390a25050505050565b828054828255906000526020600020908101928215610c6c579160200282015b82811115610c6b5782518260006101000a81548173ffffffffffffffffffffffffffffffffffffffff021916908373ffffffffffffffffffffffffffffffffffffffff16021790555091602001919060010190610c13565b5b509050610c799190610c7d565b5090565b5b80821115610c96576000816000905550600101610c7e565b5090565b6000819050919050565b610cad81610c9a565b82525050565b6000602082019050610cc86000830184610ca4565b92915050565b7f4e487b7100000000000000000000000000000000000000000000000000000000600052602160045260246000fd5b60028110610d0e57610d0d610cce565b5b50565b6000819050610d1f82610cfd565b919050565b6000610d2f82610d11565b9050919050565b610d3f81610d24565b82525050565b6000602082019050610d5a6000830184610d36565b92915050565b6000604051905090565b600080fd5b600080fd5b610d7d81610c9a565b8114610d8857600080fd5b50565b600081359050610d9a81610d74565b92915050565b600080fd5b6000601f19601f8301169050919050565b7f4e487b7100000000000000000000000000000000000000000000000000000000600052604160045260246000fd5b610dee82610da5565b810181811067ffffffffffffffff82111715610e0d57610e0c610db6565b5b80604052505050565b6000610e20610d60565b9050610e2c8282610de5565b919050565b600067ffffffffffffffff821115610e4c57610e4b610db6565b5b602082029050602081019050919050565b600080fd5b6000610e75610e7084610e31565b610e16565b90508083825260208201905060208402830185811115610e9857610e97610e5d565b5b835b81811015610ec15780610ead8882610d8b565b845260208401935050602081019050610e9a565b5050509392505050565b600082601f830112610ee057610edf610da0565b5b8135610ef0848260208601610e62565b91505092915050565b60008060408385031215610f1057610f0f610d6a565b5b6000610f1e85828601610d8b565b925050602083013567ffffffffffffffff811115610f3f57610f3e610d6f565b5b610f4b85828601610ecb565b9150509250929050565b600063ffffffff82169050919050565b610f6e81610f55565b82525050565b6000602082019050610f896000830184610f65565b92915050565b600080fd5b60008083601f840112610faa57610fa9610da0565b5b8235905067ffffffffffffffff811115610fc757610fc6610f8f565b5b602083019150836001820283011115610fe357610fe2610e5d565b5b9250929050565b6000806020838503121561100157611000610d6a565b5b600083013567ffffffffffffffff81111561101f5761101e610d6f565b5b61102b85828601610f94565b92509250509250929050565b6000819050919050565b61104a81611037565b82525050565b60006020820190506110656000830184611041565b92915050565b600073ffffffffffffffffffffffffffffffffffffffff82169050919050565b60006110968261106b565b9050919050565b6110a68161108b565b82525050565b60006020820190506110c1600083018461109d565b92915050565b600080fd5b600067ffffffffffffffff8211156110e7576110e6610db6565b5b6110f082610da5565b9050602081019050919050565b82818337600083830152505050565b600061111f61111a846110cc565b610e16565b90508281526020810184848401111561113b5761113a6110c7565b5b6111468482856110fd565b509392505050565b600082601f83011261116357611162610da0565b5b813561117384826020860161110c565b91505092915050565b60006020828403121561119257611191610d6a565b5b600082013567ffffffffffffffff8111156111b0576111af610d6f565b5b6111bc8482850161114e565b91505092915050565b60008115159050919050565b6111da816111c5565b82525050565b600081519050919050565b600082825260208201905092915050565b60005b8381101561121a5780820151818401526020810190506111ff565b60008484015250505050565b6000611231826111e0565b61123b81856111eb565b935061124b8185602086016111fc565b61125481610da5565b840191505092915050565b600060408201905061127460008301856111d1565b81810360208301526112868184611226565b90509392505050565b600067ffffffffffffffff82169050919050565b6112ac8161128f565b82525050565b60006020820190506112c760008301846112a3565b92915050565b600061ffff82169050919050565b6112e4816112cd565b82525050565b60006020820190506112ff60008301846112db565b92915050565b60006020828403121561131b5761131a610d6a565b5b600061132984828501610d8b565b91505092915050565b6000604082019050611347600083018561109d565b611354602083018461109d565b9392505050565b60006060820190506113706000830186610ca4565b61137d6020830185610ca4565b61138a6040830184610ca4565b949350505050565b600060a0820190506113a76000830188611041565b6113b460208301876112a3565b6113c160408301866112db565b6113ce6060830185610f65565b6113db6080830184610f65565b9695505050505050565b6000815190506113f481610d74565b92915050565b6000602082840312156114105761140f610d6a565b5b600061141e848285016113e5565b91505092915050565b7f4e487b7100000000000000000000000000000000000000000000000000000000600052601160045260246000fd5b600061146182610c9a565b915061146c83610c9a565b925082820390508181111561148457611483611427565b5b92915050565b7f4e487b7100000000000000000000000000000000000000000000000000000000600052603260045260246000fd5b7f4e487b7100000000000000000000000000000000000000000000000000000000600052601260045260246000fd5b60006114f382610c9a565b91506114fe83610c9a565b92508261150e5761150d6114b9565b5b828206905092915050565b600081905092915050565b50565b6000611534600083611519565b915061153f82611524565b600082019050919050565b600061155582611527565b915081905091905056fea2646970667358221220892966121ed9fc7ca2ac33a174a063fde7fe761640339588096918e62f60015664736f6c634300081b0033",
  "linkReferences": {},
  "deployedLinkReferences": {}
}