{
  "contracts/Raffle.sol": {
    "Raffle": {
      "abi": [
        {
          "inputs": [
            {
              "internalType": "uint256",
              "name": "entranceFee",
              "type": "uint256"
            },
            {
              "internalType": "uint64",
              "name": "subscriptionId",
              "type": "uint64"
            },
            {
              "internalType": "uint256",
              "name": "updateInterval",
              "type": "uint256"
            },
            {
              "internalType": "address",
              "name": "vrfconsumer",
              "type": "address"
            },
            {
              "internalType": "bytes32",
              "name": "keyHash",
              "type": "bytes32"
            }
          ],
          "stateMutability": "nonpayable",
          "type": "constructor"
        },
        {
          "inputs": [
            {
              "internalType": "address",
              "name": "have",
              "type": "address"
            },
            {
              "internalType": "address",
              "name": "want",
              "type": "address"
            }
          ],
          "name": "OnlyCoordinatorCanFulfill",
          "type": "error"
        },
        {
          "inputs": [],
          "name": "Raffle__NotEnoughETHEntered",
          "type": "error"
        },
        {
          "inputs": [],
          "name": "Raffle__NotOpen",
          "type": "error"
        },
        {
          "inputs": [],
          "name": "Raffle__TransferFailed",
          "type": "error"
        },
        {
          "inputs": [
            {
              "internalType": "uint256",
              "name": "currentBalance",
              "type": "uint256"
            },
            {
              "internalType": "uint256",
              "name": "numPlayers",
              "type": "uint256"
            },
            {
              "internalType": "uint256",
              "name": "raffleState",
              "type": "uint256"
            }
          ],
          "name": "Raffle__UpkeepNotNeeded",
          "type": "error"
        },
        {
          "anonymous": false,
          "inputs": [
            {
              "indexed": true,
              "internalType": "address",
              "name": "player",
              "type": "address"
            }
          ],
          "name": "RaffleEnter",
          "type": "event"
        },
        {
          "anonymous": false,
          "inputs": [
            {
              "indexed": true,
              "internalType": "uint256",
              "name": "requestId",
              "type": "uint256"
            }
          ],
          "name": "RequestRaffleWinner",
          "type": "event"
        },
        {
          "anonymous": false,
          "inputs": [
            {
              "indexed": true,
              "internalType": "address",
              "name": "winner",
              "type": "address"
            }
          ],
          "name": "WinnerPicked",
          "type": "event"
        },
        {
          "inputs": [],
          "name": "callbackGasLimit",
          "outputs": [
            {
              "internalType": "uint32",
              "name": "",
              "type": "uint32"
            }
          ],
          "stateMutability": "view",
          "type": "function"
        },
        {
          "inputs": [
            {
              "internalType": "bytes",
              "name": "",
              "type": "bytes"
            }
          ],
          "name": "checkUpkeep",
          "outputs": [
            {
              "internalType": "bool",
              "name": "upkeepNeeded",
              "type": "bool"
            },
            {
              "internalType": "bytes",
              "name": "",
              "type": "bytes"
            }
          ],
          "stateMutability": "view",
          "type": "function"
        },
        {
          "inputs": [],
          "name": "enterRaffle",
          "outputs": [],
          "stateMutability": "payable",
          "type": "function"
        },
        {
          "inputs": [],
          "name": "getEntranceFee",
          "outputs": [
            {
              "internalType": "uint256",
              "name": "",
              "type": "uint256"
            }
          ],
          "stateMutability": "view",
          "type": "function"
        },
        {
          "inputs": [],
          "name": "getInterval",
          "outputs": [
            {
              "internalType": "uint256",
              "name": "",
              "type": "uint256"
            }
          ],
          "stateMutability": "view",
          "type": "function"
        },
        {
          "inputs": [],
          "name": "getLatestTimeStamp",
          "outputs": [
            {
              "internalType": "uint256",
              "name": "",
              "type": "uint256"
            }
          ],
          "stateMutability": "view",
          "type": "function"
        },
        {
          "inputs": [],
          "name": "getNumberOfPlayers",
          "outputs": [
            {
              "internalType": "uint256",
              "name": "",
              "type": "uint256"
            }
          ],
          "stateMutability": "view",
          "type": "function"
        },
        {
          "inputs": [
            {
              "internalType": "uint256",
              "name": "index",
              "type": "uint256"
            }
          ],
          "name": "getPlayer",
          "outputs": [
            {
              "internalType": "address",
              "name": "",
              "type": "address"
            }
          ],
          "stateMutability": "view",
          "type": "function"
        },
        {
          "inputs": [],
          "name": "getRaffleState",
          "outputs": [
            {
              "internalType": "enum Raffle.RaffleState",
              "name": "",
              "type": "uint8"
            }
          ],
          "stateMutability": "view",
          "type": "function"
        },
        {
          "inputs": [],
          "name": "getRecentWinner",
          "outputs": [
            {
              "internalType": "address",
              "name": "",
              "type": "address"
            }
          ],
          "stateMutability": "view",
          "type": "function"
        },
        {
          "inputs": [],
          "name": "numWords",
          "outputs": [
            {
              "internalType": "uint32",
              "name": "",
              "type": "uint32"
            }
          ],
          "stateMutability": "view",
          "type": "function"
        },
        {
          "inputs": [
            {
              "internalType": "bytes",
              "name": "",
              "type": "bytes"
            }
          ],
          "name": "performUpkeep",
          "outputs": [],
          "stateMutability": "nonpayable",
          "type": "function"
        },
        {
          "inputs": [
            {
              "internalType": "uint256",
              "name": "requestId",
              "type": "uint256"
            },
            {
              "internalType": "uint256[]",
              "name": "randomWords",
              "type": "uint256[]"
            }
          ],
          "name": "rawFulfillRandomWords",
          "outputs": [],
          "stateMutability": "nonpayable",
          "type": "function"
        },
        {
          "inputs": [],
          "name": "requestConfirmations",
          "outputs": [
            {
              "internalType": "uint16",
              "name": "",
              "type": "uint16"
            }
          ],
          "stateMutability": "view",
          "type": "function"
        },
        {
          "inputs": [],
          "name": "s_keyHash",
          "outputs": [
            {
              "internalType": "bytes32",
              "name": "",
              "type": "bytes32"
            }
          ],
          "stateMutability": "view",
          "type": "function"
        },
        {
          "inputs": [],
          "name": "s_subscriptionId",
          "outputs": [
            {
              "internalType": "uint64",
              "name": "",
              "type": "uint64"
            }
          ],
          "stateMutability": "view",
          "type": "function"
        }
      ],
      "evm": {
        "bytecode": {
          "linkReferences": {},
          "object": "61010060405260038060006101000a81548161ffff021916908361ffff160217905550620186a0600360026101000a81548163ffffffff021916908363ffffffff1602179055506001600360066101000a81548163ffffffff021916908363ffffffff16021790555034801561007457600080fd5b506040516119183803806119188339818101604052810190610096919061028b565b818073ffffffffffffffffffffffffffffffffffffffff1660808173ffffffffffffffffffffffffffffffffffffffff1681525050508173ffffffffffffffffffffffffffffffffffffffff1660a08173ffffffffffffffffffffffffffffffffffffffff168152505083600160006101000a81548167ffffffffffffffff021916908367ffffffffffffffff1602179055508460c0818152505060006003601e6101000a81548160ff0219169083600181111561015757610156610306565b5b0217905550426004819055508260e08181525050806002819055505050505050610335565b600080fd5b6000819050919050565b61019481610181565b811461019f57600080fd5b50565b6000815190506101b18161018b565b92915050565b600067ffffffffffffffff82169050919050565b6101d4816101b7565b81146101df57600080fd5b50565b6000815190506101f1816101cb565b92915050565b600073ffffffffffffffffffffffffffffffffffffffff82169050919050565b6000610222826101f7565b9050919050565b61023281610217565b811461023d57600080fd5b50565b60008151905061024f81610229565b92915050565b6000819050919050565b61026881610255565b811461027357600080fd5b50565b6000815190506102858161025f565b92915050565b600080600080600060a086880312156102a7576102a661017c565b5b60006102b5888289016101a2565b95505060206102c6888289016101e2565b94505060406102d7888289016101a2565b93505060606102e888828901610240565b92505060806102f988828901610276565b9150509295509295909350565b7f4e487b7100000000000000000000000000000000000000000000000000000000600052602160045260246000fd5b60805160a05160c05160e0516115956103836000396000818161088401526109370152600081816103ac01526104bf015260006106ee0152600081816103e9015261043d01526115956000f3fe6080604052600436106100f35760003560e01c8063473f1ddc1161008a57806391ad27b41161005957806391ad27b4146102ea578063b0fb162f14610315578063e55ae4e814610340578063fd6673f51461037d576100f3565b8063473f1ddc1461022b5780636e04ff0d146102565780637ccfd7fc146102945780638ac00021146102bf576100f3565b80632cfcc539116100c65780632cfcc539146101a2578063320229eb146101ac5780634585e33b146101d757806345bb327b14610200576100f3565b806309bc33a7146100f8578063115cbaf5146101235780631fe543e31461014e57806324f7469714610177575b600080fd5b34801561010457600080fd5b5061010d6103a8565b60405161011a9190610cb3565b60405180910390f35b34801561012f57600080fd5b506101386103d0565b6040516101459190610d45565b60405180910390f35b34801561015a57600080fd5b5061017560048036038101906101709190610ef9565b6103e7565b005b34801561018357600080fd5b5061018c6104a7565b6040516101999190610f74565b60405180910390f35b6101aa6104bd565b005b3480156101b857600080fd5b506101c161062c565b6040516101ce9190610cb3565b60405180910390f35b3480156101e357600080fd5b506101fe60048036038101906101f99190610fea565b610636565b005b34801561020c57600080fd5b50610215610811565b6040516102229190611050565b60405180910390f35b34801561023757600080fd5b50610240610817565b60405161024d91906110ac565b60405180910390f35b34801561026257600080fd5b5061027d6004803603810190610278919061117c565b610841565b60405161028b92919061125f565b60405180910390f35b3480156102a057600080fd5b506102a9610903565b6040516102b69190610f74565b60405180910390f35b3480156102cb57600080fd5b506102d4610919565b6040516102e191906112b2565b60405180910390f35b3480156102f657600080fd5b506102ff610933565b60405161030c9190610cb3565b60405180910390f35b34801561032157600080fd5b5061032a61095b565b60405161033791906112ea565b60405180910390f35b34801561034c57600080fd5b5061036760048036038101906103629190611305565b61096f565b60405161037491906110ac565b60405180910390f35b34801561038957600080fd5b506103926109b6565b60405161039f9190610cb3565b60405180910390f35b60007f0000000000000000000000000000000000000000000000000000000000000000905090565b60006003601e9054906101000a900460ff16905090565b7f000000000000000000000000000000000000000000000000000000000000000073ffffffffffffffffffffffffffffffffffffffff163373ffffffffffffffffffffffffffffffffffffffff161461049957337f00000000000000000000000000000000000000000000000000000000000000006040517f1cf993f4000000000000000000000000000000000000000000000000000000008152600401610490929190611332565b60405180910390fd5b6104a382826109c2565b5050565b600360029054906101000a900463ffffffff1681565b7f0000000000000000000000000000000000000000000000000000000000000000341015610517576040517fbd4e069500000000000000000000000000000000000000000000000000000000815260040160405180910390fd5b6000600181111561052b5761052a610cce565b5b6003601e9054906101000a900460ff16600181111561054d5761054c610cce565b5b14610584576040517f1425571c00000000000000000000000000000000000000000000000000000000815260040160405180910390fd5b6000339080600181540180825580915050600190039060005260206000200160009091909190916101000a81548173ffffffffffffffffffffffffffffffffffffffff021916908373ffffffffffffffffffffffffffffffffffffffff1602179055503373ffffffffffffffffffffffffffffffffffffffff167f0805e1d667bddb8a95f0f09880cf94f403fb596ce79928d9f29b74203ba284d460405160405180910390a2565b6000600454905090565b600061065060405180602001604052806000815250610841565b509050806106bf57476000805490506003601e9054906101000a900460ff16600181111561068157610680610cce565b5b6040517f584327aa0000000000000000000000000000000000000000000000000000000081526004016106b69392919061135b565b60405180910390fd5b60016003601e6101000a81548160ff021916908360018111156106e5576106e4610cce565b5b021790555060007f000000000000000000000000000000000000000000000000000000000000000073ffffffffffffffffffffffffffffffffffffffff16635d3b1d30600254600160009054906101000a900467ffffffffffffffff16600360009054906101000a900461ffff16600360029054906101000a900463ffffffff16600360069054906101000a900463ffffffff166040518663ffffffff1660e01b8152600401610799959493929190611392565b6020604051808303816000875af11580156107b8573d6000803e3d6000fd5b505050506040513d601f19601f820116820180604052508101906107dc91906113fa565b9050807fde6349b018d6c03d837b67d9a198a6ba4842546f2295fe963fae141e5dbaef8160405160405180910390a250505050565b60025481565b60006003600a9054906101000a900473ffffffffffffffffffffffffffffffffffffffff16905090565b6000606060006003601e9054906101000a900460ff16600181111561086957610868610cce565b5b6000600181111561087d5761087c610cce565b5b14905060007f0000000000000000000000000000000000000000000000000000000000000000600454426108b19190611456565b119050600080600080549050119050600080471190508380156108d15750825b80156108da5750815b80156108e35750805b955085604051806020016040528060008152509550955050505050915091565b600360069054906101000a900463ffffffff1681565b600160009054906101000a900467ffffffffffffffff1681565b60007f0000000000000000000000000000000000000000000000000000000000000000905090565b600360009054906101000a900461ffff1681565b60008082815481106109845761098361148a565b5b9060005260206000200160009054906101000a900473ffffffffffffffffffffffffffffffffffffffff169050919050565b60008080549050905090565b60008080549050826000815181106109dd576109dc61148a565b5b60200260200101516109ef91906114e8565b90506000808281548110610a0657610a0561148a565b5b9060005260206000200160009054906101000a900473ffffffffffffffffffffffffffffffffffffffff169050806003600a6101000a81548173ffffffffffffffffffffffffffffffffffffffff021916908373ffffffffffffffffffffffffffffffffffffffff16021790555060006003601e6101000a81548160ff02191690836001811115610a9a57610a99610cce565b5b0217905550600067ffffffffffffffff811115610aba57610ab9610db6565b5b604051908082528060200260200182016040528015610ae85781602001602082028036833780820191505090505b5060009080519060200190610afe929190610bf3565b504260048190555060008173ffffffffffffffffffffffffffffffffffffffff1647604051610b2c9061154a565b60006040518083038185875af1925050503d8060008114610b69576040519150601f19603f3d011682016040523d82523d6000602084013e610b6e565b606091505b5050905080610ba9576040517fa1d04b3900000000000000000000000000000000000000000000000000000000815260040160405180910390fd5b8173ffffffffffffffffffffffffffffffffffffffff167f5b690ec4a06fe979403046eaeea5b3ce38524683c3001f662c8b5a829632f7df60405160405180910390a25050505050565b828054828255906000526020600020908101928215610c6c579160200282015b82811115610c6b5782518260006101000a81548173ffffffffffffffffffffffffffffffffffffffff021916908373ffffffffffffffffffffffffffffffffffffffff16021790555091602001919060010190610c13565b5b509050610c799190610c7d565b5090565b5b80821115610c96576000816000905550600101610c7e565b5090565b6000819050919050565b610cad81610c9a565b82525050565b6000602082019050610cc86000830184610ca4565b92915050565b7f4e487b7100000000000000000000000000000000000000000000000000000000600052602160045260246000fd5b60028110610d0e57610d0d610cce565b5b50565b6000819050610d1f82610cfd565b919050565b6000610d2f82610d11565b9050919050565b610d3f81610d24565b82525050565b6000602082019050610d5a6000830184610d36565b92915050565b6000604051905090565b600080fd5b600080fd5b610d7d81610c9a565b8114610d8857600080fd5b50565b600081359050610d9a81610d74565b92915050565b600080fd5b6000601f19601f8301169050919050565b7f4e487b7100000000000000000000000000000000000000000000000000000000600052604160045260246000fd5b610dee82610da5565b810181811067ffffffffffffffff82111715610e0d57610e0c610db6565b5b80604052505050565b6000610e20610d60565b9050610e2c8282610de5565b919050565b600067ffffffffffffffff821115610e4c57610e4b610db6565b5b602082029050602081019050919050565b600080fd5b6000610e75610e7084610e31565b610e16565b90508083825260208201905060208402830185811115610e9857610e97610e5d565b5b835b81811015610ec15780610ead8882610d8b565b845260208401935050602081019050610e9a565b5050509392505050565b600082601f830112610ee057610edf610da0565b5b8135610ef0848260208601610e62565b91505092915050565b60008060408385031215610f1057610f0f610d6a565b5b6000610f1e85828601610d8b565b925050602083013567ffffffffffffffff811115610f3f57610f3e610d6f565b5b610f4b85828601610ecb565b9150509250929050565b600063ffffffff82169050919050565b610f6e81610f55565b82525050565b6000602082019050610f896000830184610f65565b92915050565b600080fd5b60008083601f840112610faa57610fa9610da0565b5b8235905067ffffffffffffffff811115610fc757610fc6610f8f565b5b602083019150836001820283011115610fe357610fe2610e5d565b5b9250929050565b6000806020838503121561100157611000610d6a565b5b600083013567ffffffffffffffff81111561101f5761101e610d6f565b5b61102b85828601610f94565b92509250509250929050565b6000819050919050565b61104a81611037565b82525050565b60006020820190506110656000830184611041565b92915050565b600073ffffffffffffffffffffffffffffffffffffffff82169050919050565b60006110968261106b565b9050919050565b6110a68161108b565b82525050565b60006020820190506110c1600083018461109d565b92915050565b600080fd5b600067ffffffffffffffff8211156110e7576110e6610db6565b5b6110f082610da5565b9050602081019050919050565b82818337600083830152505050565b600061111f61111a846110cc565b610e16565b90508281526020810184848401111561113b5761113a6110c7565b5b6111468482856110fd565b509392505050565b600082601f83011261116357611162610da0565b5b813561117384826020860161110c565b91505092915050565b60006020828403121561119257611191610d6a565b5b600082013567ffffffffffffffff8111156111b0576111af610d6f565b5b6111bc8482850161114e565b91505092915050565b60008115159050919050565b6111da816111c5565b82525050565b600081519050919050565b600082825260208201905092915050565b60005b8381101561121a5780820151818401526020810190506111ff565b60008484015250505050565b6000611231826111e0565b61123b81856111eb565b935061124b8185602086016111fc565b61125481610da5565b840191505092915050565b600060408201905061127460008301856111d1565b81810360208301526112868184611226565b90509392505050565b600067ffffffffffffffff82169050919050565b6112ac8161128f565b82525050565b60006020820190506112c760008301846112a3565b92915050565b600061ffff82169050919050565b6112e4816112cd565b82525050565b60006020820190506112ff60008301846112db565b92915050565b60006020828403121561131b5761131a610d6a565b5b600061132984828501610d8b565b91505092915050565b6000604082019050611347600083018561109d565b611354602083018461109d565b9392505050565b60006060820190506113706000830186610ca4565b61137d6020830185610ca4565b61138a6040830184610ca4565b949350505050565b600060a0820190506113a76000830188611041565b6113b460208301876112a3565b6113c160408301866112db565b6113ce6060830185610f65565b6113db6080830184610f65565b9695505050505050565b6000815190506113f481610d74565b92915050565b6000602082840312156114105761140f610d6a565b5b600061141e848285016113e5565b91505092915050565b7f4e487b7100000000000000000000000000000000000000000000000000000000600052601160045260246000fd5b600061146182610c9a565b915061146c83610c9a565b925082820390508181111561148457611483611427565b5b92915050565b7f4e487b7100000000000000000000000000000000000000000000000000000000600052603260045260246000fd5b7f4e487b7100000000000000000000000000000000000000000000000000000000600052601260045260246000fd5b60006114f382610c9a565b91506114fe83610c9a565b92508261150e5761150d6114b9565b5b828206905092915050565b600081905092915050565b50565b6000611534600083611519565b915061153f82611524565b600082019050919050565b600061155582611527565b915081905091905056fea2646970667358221220892966121ed9fc7ca2ac33a174a063fde7fe761640339588096918e62f60015664736f6c634300081b0033",
          "opcodes": "PUSH2 0x100 PUSH1 0x40 MSTORE PUSH1 0x3 DUP1 PUSH1 0x0 PUSH2 0x100 EXP DUP2 SLOAD DUP2 PUSH2 0xFFFF MUL NOT AND SWAP1 DUP4 PUSH2 0xFFFF AND MUL OR SWAP1 SSTORE POP PUSH3 0x186A0 PUSH1 0x3 PUSH1 0x2 PUSH2 0x100 EXP DUP2 SLOAD DUP2 PUSH4 0xFFFFFFFF MUL NOT AND SWAP1 DUP4 PUSH4 0xFFFFFFFF AND MUL OR SWAP1 SSTORE POP PUSH1 0x1 PUSH1 0x3 PUSH1 0x6 PUSH2 0x100 EXP DUP2 SLOAD DUP2 PUSH4 0xFFFFFFFF MUL NOT AND SWAP1 DUP4 PUSH4 0xFFFFFFFF AND MUL OR SWAP1 SSTORE POP CALLVALUE DUP1 ISZERO PUSH2 0x74 JUMPI PUSH1 0x0 DUP1 REVERT JUMPDEST POP PUSH1 0x40 MLOAD PUSH2 0x1918 CODESIZE SUB DUP1 PUSH2 0x1918 DUP4 CODECOPY DUP2 DUP2 ADD PUSH1 0x40 MSTORE DUP2 ADD SWAP1 PUSH2 0x96 SWAP2 SWAP1 PUSH2 0x28B JUMP JUMPDEST DUP2 DUP1 PUSH20 0xFFFFFFFFFFFFFFFFFFFFFFFFFFFFFFFFFFFFFFFF AND PUSH1 0x80 DUP2 PUSH20 0xFFFFFFFFFFFFFFFFFFFFFFFFFFFFFFFFFFFFFFFF AND DUP2 MSTORE POP POP POP DUP2 PUSH20 0xFFFFFFFFFFFFFFFFFFFFFFFFFFFFFFFFFFFFFFFF AND PUSH1 0xA0 DUP2 PUSH20 0xFFFFFFFFFFFFFFFFFFFFFFFFFFFFFFFFFFFFFFFF AND DUP2 MSTORE POP POP DUP4 PUSH1 0x1 PUSH1 0x0 PUSH2 0x100 EXP DUP2 SLOAD DUP2 PUSH8 0xFFFFFFFFFFFFFFFF MUL NOT AND SWAP1 DUP4 PUSH8 0xFFFFFFFFFFFFFFFF AND MUL OR SWAP1 SSTORE POP DUP5 PUSH1 0xC0 DUP2 DUP2 MSTORE POP POP PUSH1 0x0 PUSH1 0x3 PUSH1 0x1E PUSH2 0x100 EXP DUP2 SLOAD DUP2 PUSH1 0xFF MUL NOT AND SWAP1 DUP4 PUSH1 0x1 DUP2 GT ISZERO PUSH2 0x157 JUMPI PUSH2 0x156 PUSH2 0x306 JUMP JUMPDEST JUMPDEST MUL OR SWAP1 SSTORE POP TIMESTAMP PUSH1 0x4 DUP2 SWAP1 SSTORE POP DUP3 PUSH1 0xE0 DUP2 DUP2 MSTORE POP POP DUP1 PUSH1 0x2 DUP2 SWAP1 SSTORE POP POP POP POP POP POP PUSH2 0x335 JUMP JUMPDEST PUSH1 0x0 DUP1 REVERT JUMPDEST PUSH1 0x0 DUP2 SWAP1 POP SWAP2 SWAP1 POP JUMP JUMPDEST PUSH2 0x194 DUP2 PUSH2 0x181 JUMP JUMPDEST DUP2 EQ PUSH2 0x19F JUMPI PUSH1 0x0 DUP1 REVERT JUMPDEST POP JUMP JUMPDEST PUSH1 0x0 DUP2 MLOAD SWAP1 POP PUSH2 0x1B1 DUP2 PUSH2 0x18B JUMP JUMPDEST SWAP3 SWAP2 POP POP JUMP JUMPDEST PUSH1 0x0 PUSH8 0xFFFFFFFFFFFFFFFF DUP3 AND SWAP1 POP SWAP2 SWAP1 POP JUMP JUMPDEST PUSH2 0x1D4 DUP2 PUSH2 0x1B7 JUMP JUMPDEST DUP2 EQ PUSH2 0x1DF JUMPI PUSH1 0x0 DUP1 REVERT JUMPDEST POP JUMP JUMPDEST PUSH1 0x0 DUP2 MLOAD SWAP1 POP PUSH2 0x1F1 DUP2 PUSH2 0x1CB JUMP JUMPDEST SWAP3 SWAP2 POP POP JUMP JUMPDEST PUSH1 0x0 PUSH20 0xFFFFFFFFFFFFFFFFFFFFFFFFFFFFFFFFFFFFFFFF DUP3 AND SWAP1 POP SWAP2 SWAP1 POP JUMP JUMPDEST PUSH1 0x0 PUSH2 0x222 DUP3 PUSH2 0x1F7 JUMP JUMPDEST SWAP1 POP SWAP2 SWAP1 POP JUMP JUMPDEST PUSH2 0x232 DUP2 PUSH2 0x217 JUMP JUMPDEST DUP2 EQ PUSH2 0x23D JUMPI PUSH1 0x0 DUP1 REVERT JUMPDEST POP JUMP JUMPDEST PUSH1 0x0 DUP2 MLOAD SWAP1 POP PUSH2 0x24F DUP2 PUSH2 0x229 JUMP JUMPDEST SWAP3 SWAP2 POP POP JUMP JUMPDEST PUSH1 0x0 DUP2 SWAP1 POP SWAP2 SWAP1 POP JUMP JUMPDEST PUSH2 0x268 DUP2 PUSH2 0x255 JUMP JUMPDEST DUP2 EQ PUSH2 0x273 JUMPI PUSH1 0x0 DUP1 REVERT JUMPDEST POP JUMP JUMPDEST PUSH1 0x0 DUP2 MLOAD SWAP1 POP PUSH2 0x285 DUP2 PUSH2 0x25F JUMP JUMPDEST SWAP3 SWAP2 POP POP JUMP JUMPDEST PUSH1 0x0 DUP1 PUSH1 0x0 DUP1 PUSH1 0x0 PUSH1 0xA0 DUP7 DUP9 SUB SLT ISZERO PUSH2 0x2A7 JUMPI PUSH2 0x2A6 PUSH2 0x17C JUMP JUMPDEST JUMPDEST PUSH1 0x0 PUSH2 0x2B5 DUP9 DUP3 DUP10 ADD PUSH2 0x1A2 JUMP JUMPDEST SWAP6 POP POP PUSH1 0x20 PUSH2 0x2C6 DUP9 DUP3 DUP10 ADD PUSH2 0x1E2 JUMP JUMPDEST SWAP5 POP POP PUSH1 0x40 PUSH2 0x2D7 DUP9 DUP3 DUP10 ADD PUSH2 0x1A2 JUMP JUMPDEST SWAP4 POP POP PUSH1 0x60 PUSH2 0x2E8 DUP9 DUP3 DUP10 ADD PUSH2 0x240 JUMP JUMPDEST SWAP3 POP POP PUSH1 0x80 PUSH2 0x2F9 DUP9 DUP3 DUP10 ADD PUSH2 0x276 JUMP JUMPDEST SWAP2 POP POP SWAP3 SWAP6 POP SWAP3 SWAP6 SWAP1 SWAP4 POP JUMP JUMPDEST PUSH32 0x4E487B7100000000000000000000000000000000000000000000000000000000 PUSH1 0x0 MSTORE PUSH1 0x21 PUSH1 0x4 MSTORE PUSH1 0x24 PUSH1 0x0 REVERT JUMPDEST PUSH1 0x80 MLOAD PUSH1 0xA0 MLOAD PUSH1 0xC0 MLOAD PUSH1 0xE0 MLOAD PUSH2 0x1595 PUSH2 0x383 PUSH1 0x0 CODECOPY PUSH1 0x0 DUP2 DUP2 PUSH2 0x884 ADD MSTORE PUSH2 0x937 ADD MSTORE PUSH1 0x0 DUP2 DUP2 PUSH2 0x3AC ADD MSTORE PUSH2 0x4BF ADD MSTORE PUSH1 0x0 PUSH2 0x6EE ADD MSTORE PUSH1 0x0 DUP2 DUP2 PUSH2 0x3E9 ADD MSTORE PUSH2 0x43D ADD MSTORE PUSH2 0x1595 PUSH1 0x0 RETURN INVALID PUSH1 0x80 PUSH1 0x40 MSTORE PUSH1 0x4 CALLDATASIZE LT PUSH2 0xF3 JUMPI PUSH1 0x0 CALLDATALOAD PUSH1 0xE0 SHR DUP1 PUSH4 0x473F1DDC GT PUSH2 0x8A JUMPI DUP1 PUSH4 0x91AD27B4 GT PUSH2 0x59 JUMPI DUP1 PUSH4 0x91AD27B4 EQ PUSH2 0x2EA JUMPI DUP1 PUSH4 0xB0FB162F EQ PUSH2 0x315 JUMPI DUP1 PUSH4 0xE55AE4E8 EQ PUSH2 0x340 JUMPI DUP1 PUSH4 0xFD6673F5 EQ PUSH2 0x37D JUMPI PUSH2 0xF3 JUMP JUMPDEST DUP1 PUSH4 0x473F1DDC EQ PUSH2 0x22B JUMPI DUP1 PUSH4 0x6E04FF0D EQ PUSH2 0x256 JUMPI DUP1 PUSH4 0x7CCFD7FC EQ PUSH2 0x294 JUMPI DUP1 PUSH4 0x8AC00021 EQ PUSH2 0x2BF JUMPI PUSH2 0xF3 JUMP JUMPDEST DUP1 PUSH4 0x2CFCC539 GT PUSH2 0xC6 JUMPI DUP1 PUSH4 0x2CFCC539 EQ PUSH2 0x1A2 JUMPI DUP1 PUSH4 0x320229EB EQ PUSH2 0x1AC JUMPI DUP1 PUSH4 0x4585E33B EQ PUSH2 0x1D7 JUMPI DUP1 PUSH4 0x45BB327B EQ PUSH2 0x200 JUMPI PUSH2 0xF3 JUMP JUMPDEST DUP1 PUSH4 0x9BC33A7 EQ PUSH2 0xF8 JUMPI DUP1 PUSH4 0x115CBAF5 EQ PUSH2 0x123 JUMPI DUP1 PUSH4 0x1FE543E3 EQ PUSH2 0x14E JUMPI DUP1 PUSH4 0x24F74697 EQ PUSH2 0x177 JUMPI JUMPDEST PUSH1 0x0 DUP1 REVERT JUMPDEST CALLVALUE DUP1 ISZERO PUSH2 0x104 JUMPI PUSH1 0x0 DUP1 REVERT JUMPDEST POP PUSH2 0x10D PUSH2 0x3A8 JUMP JUMPDEST PUSH1 0x40 MLOAD PUSH2 0x11A SWAP2 SWAP1 PUSH2 0xCB3 JUMP JUMPDEST PUSH1 0x40 MLOAD DUP1 SWAP2 SUB SWAP1 RETURN JUMPDEST CALLVALUE DUP1 ISZERO PUSH2 0x12F JUMPI PUSH1 0x0 DUP1 REVERT JUMPDEST POP PUSH2 0x138 PUSH2 0x3D0 JUMP JUMPDEST PUSH1 0x40 MLOAD PUSH2 0x145 SWAP2 SWAP1 PUSH2 0xD45 JUMP JUMPDEST PUSH1 0x40 MLOAD DUP1 SWAP2 SUB SWAP1 RETURN JUMPDEST CALLVALUE DUP1 ISZERO PUSH2 0x15A JUMPI PUSH1 0x0 DUP1 REVERT JUMPDEST POP PUSH2 0x175 PUSH1 0x4 DUP1 CALLDATASIZE SUB DUP2 ADD SWAP1 PUSH2 0x170 SWAP2 SWAP1 PUSH2 0xEF9 JUMP JUMPDEST PUSH2 0x3E7 JUMP JUMPDEST STOP JUMPDEST CALLVALUE DUP1 ISZERO PUSH2 0x183 JUMPI PUSH1 0x0 DUP1 REVERT JUMPDEST POP PUSH2 0x18C PUSH2 0x4A7 JUMP JUMPDEST PUSH1 0x40 MLOAD PUSH2 0x199 SWAP2 SWAP1 PUSH2 0xF74 JUMP JUMPDEST PUSH1 0x40 MLOAD DUP1 SWAP2 SUB SWAP1 RETURN JUMPDEST PUSH2 0x1AA PUSH2 0x4BD JUMP JUMPDEST STOP JUMPDEST CALLVALUE DUP1 ISZERO PUSH2 0x1B8 JUMPI PUSH1 0x0 DUP1 REVERT JUMPDEST POP PUSH2 0x1C1 PUSH2 0x62C JUMP JUMPDEST PUSH1 0x40 MLOAD PUSH2 0x1CE SWAP2 SWAP1 PUSH2 0xCB3 JUMP JUMPDEST PUSH1 0x40 MLOAD DUP1 SWAP2 SUB SWAP1 RETURN JUMPDEST CALLVALUE DUP1 ISZERO PUSH2 0x1E3 JUMPI PUSH1 0x0 DUP1 REVERT JUMPDEST POP PUSH2 0x1FE PUSH1 0x4 DUP1 CALLDATASIZE SUB DUP2 ADD SWAP1 PUSH2 0x1F9 SWAP2 SWAP1 PUSH2 0xFEA JUMP JUMPDEST PUSH2 0x636 JUMP JUMPDEST STOP JUMPDEST CALLVALUE DUP1 ISZERO PUSH2 0x20C JUMPI PUSH1 0x0 DUP1 REVERT JUMPDEST POP PUSH2 0x215 PUSH2 0x811 JUMP JUMPDEST PUSH1 0x40 MLOAD PUSH2 0x222 SWAP2 SWAP1 PUSH2 0x1050 JUMP JUMPDEST PUSH1 0x40 MLOAD DUP1 SWAP2 SUB SWAP1 RETURN JUMPDEST CALLVALUE DUP1 ISZERO PUSH2 0x237 JUMPI PUSH1 0x0 DUP1 REVERT JUMPDEST POP PUSH2 0x240 PUSH2 0x817 JUMP JUMPDEST PUSH1 0x40 MLOAD PUSH2 0x24D SWAP2 SWAP1 PUSH2 0x10AC JUMP JUMPDEST PUSH1 0x40 MLOAD DUP1 SWAP2 SUB SWAP1 RETURN JUMPDEST CALLVALUE DUP1 ISZERO PUSH2 0x262 JUMPI PUSH1 0x0 DUP1 REVERT JUMPDEST POP PUSH2 0x27D PUSH1 0x4 DUP1 CALLDATASIZE SUB DUP2 ADD SWAP1 PUSH2 0x278 SWAP2 SWAP1 PUSH2 0x117C JUMP JUMPDEST PUSH2 0x841 JUMP JUMPDEST PUSH1 0x40 MLOAD PUSH2 0x28B SWAP3 SWAP2 SWAP1 PUSH2 0x125F JUMP JUMPDEST PUSH1 0x40 MLOAD DUP1 SWAP2 SUB SWAP1 RETURN JUMPDEST CALLVALUE DUP1 ISZERO PUSH2 0x2A0 JUMPI PUSH1 0x0 DUP1 REVERT JUMPDEST POP PUSH2 0x2A9 PUSH2 0x903 JUMP JUMPDEST PUSH1 0x40 MLOAD PUSH2 0x2B6 SWAP2 SWAP1 PUSH2 0xF74 JUMP JUMPDEST PUSH1 0x40 MLOAD DUP1 SWAP2 SUB SWAP1 RETURN JUMPDEST CALLVALUE DUP1 ISZERO PUSH2 0x2CB JUMPI PUSH1 0x0 DUP1 REVERT JUMPDEST POP PUSH2 0x2D4 PUSH2 0x919 JUMP JUMPDEST PUSH1 0x40 MLOAD PUSH2 0x2E1 SWAP2 SWAP1 PUSH2 0x12B2 JUMP JUMPDEST PUSH1 0x40 MLOAD DUP1 SWAP2 SUB SWAP1 RETURN JUMPDEST CALLVALUE DUP1 ISZERO PUSH2 0x2F6 JUMPI PUSH1 0x0 DUP1 REVERT JUMPDEST POP PUSH2 0x2FF PUSH2 0x933 JUMP JUMPDEST PUSH1 0x40 MLOAD PUSH2 0x30C SWAP2 SWAP1 PUSH2 0xCB3 JUMP JUMPDEST PUSH1 0x40 MLOAD DUP1 SWAP2 SUB SWAP1 RETURN JUMPDEST CALLVALUE DUP1 ISZERO PUSH2 0x321 JUMPI PUSH1 0x0 DUP1 REVERT JUMPDEST POP PUSH2 0x32A PUSH2 0x95B JUMP JUMPDEST PUSH1 0x40 MLOAD PUSH2 0x337 SWAP2 SWAP1 PUSH2 0x12EA JUMP JUMPDEST PUSH1 0x40 MLOAD DUP1 SWAP2 SUB SWAP1 RETURN JUMPDEST CALLVALUE DUP1 ISZERO PUSH2 0x34C JUMPI PUSH1 0x0 DUP1 REVERT JUMPDEST POP PUSH2 0x367 PUSH1 0x4 DUP1 CALLDATASIZE SUB DUP2 ADD SWAP1 PUSH2 0x362 SWAP2 SWAP1 PUSH2 0x1305 JUMP JUMPDEST PUSH2 0x96F JUMP JUMPDEST PUSH1 0x40 MLOAD PUSH2 0x374 SWAP2 SWAP1 PUSH2 0x10AC JUMP JUMPDEST PUSH1 0x40 MLOAD DUP1 SWAP2 SUB SWAP1 RETURN JUMPDEST CALLVALUE DUP1 ISZERO PUSH2 0x389 JUMPI PUSH1 0x0 DUP1 REVERT JUMPDEST POP PUSH2 0x392 PUSH2 0x9B6 JUMP JUMPDEST PUSH1 0x40 MLOAD PUSH2 0x39F SWAP2 SWAP1 PUSH2 0xCB3 JUMP JUMPDEST PUSH1 0x40 MLOAD DUP1 SWAP2 SUB SWAP1 RETURN JUMPDEST PUSH1 0x0 PUSH32 0x0 SWAP1 POP SWAP1 JUMP JUMPDEST PUSH1 0x0 PUSH1 0x3 PUSH1 0x1E SWAP1 SLOAD SWAP1 PUSH2 0x100 EXP SWAP1 DIV PUSH1 0xFF AND SWAP1 POP SWAP1 JUMP JUMPDEST PUSH32 0x0 PUSH20 0xFFFFFFFFFFFFFFFFFFFFFFFFFFFFFFFFFFFFFFFF AND CALLER PUSH20 0xFFFFFFFFFFFFFFFFFFFFFFFFFFFFFFFFFFFFFFFF AND EQ PUSH2 0x499 JUMPI CALLER PUSH32 0x0 PUSH1 0x40 MLOAD PUSH32 0x1CF993F400000000000000000000000000000000000000000000000000000000 DUP2 MSTORE PUSH1 0x4 ADD PUSH2 0x490 SWAP3 SWAP2 SWAP1 PUSH2 0x1332 JUMP JUMPDEST PUSH1 0x40 MLOAD DUP1 SWAP2 SUB SWAP1 REVERT JUMPDEST PUSH2 0x4A3 DUP3 DUP3 PUSH2 0x9C2 JUMP JUMPDEST POP POP JUMP JUMPDEST PUSH1 0x3 PUSH1 0x2 SWAP1 SLOAD SWAP1 PUSH2 0x100 EXP SWAP1 DIV PUSH4 0xFFFFFFFF AND DUP2 JUMP JUMPDEST PUSH32 0x0 CALLVALUE LT ISZERO PUSH2 0x517 JUMPI PUSH1 0x40 MLOAD PUSH32 0xBD4E069500000000000000000000000000000000000000000000000000000000 DUP2 MSTORE PUSH1 0x4 ADD PUSH1 0x40 MLOAD DUP1 SWAP2 SUB SWAP1 REVERT JUMPDEST PUSH1 0x0 PUSH1 0x1 DUP2 GT ISZERO PUSH2 0x52B JUMPI PUSH2 0x52A PUSH2 0xCCE JUMP JUMPDEST JUMPDEST PUSH1 0x3 PUSH1 0x1E SWAP1 SLOAD SWAP1 PUSH2 0x100 EXP SWAP1 DIV PUSH1 0xFF AND PUSH1 0x1 DUP2 GT ISZERO PUSH2 0x54D JUMPI PUSH2 0x54C PUSH2 0xCCE JUMP JUMPDEST JUMPDEST EQ PUSH2 0x584 JUMPI PUSH1 0x40 MLOAD PUSH32 0x1425571C00000000000000000000000000000000000000000000000000000000 DUP2 MSTORE PUSH1 0x4 ADD PUSH1 0x40 MLOAD DUP1 SWAP2 SUB SWAP1 REVERT JUMPDEST PUSH1 0x0 CALLER SWAP1 DUP1 PUSH1 0x1 DUP2 SLOAD ADD DUP1 DUP3 SSTORE DUP1 SWAP2 POP POP PUSH1 0x1 SWAP1 SUB SWAP1 PUSH1 0x0 MSTORE PUSH1 0x20 PUSH1 0x0 KECCAK256 ADD PUSH1 0x0 SWAP1 SWAP2 SWAP1 SWAP2 SWAP1 SWAP2 PUSH2 0x100 EXP DUP2 SLOAD DUP2 PUSH20 0xFFFFFFFFFFFFFFFFFFFFFFFFFFFFFFFFFFFFFFFF MUL NOT AND SWAP1 DUP4 PUSH20 0xFFFFFFFFFFFFFFFFFFFFFFFFFFFFFFFFFFFFFFFF AND MUL OR SWAP1 SSTORE POP CALLER PUSH20 0xFFFFFFFFFFFFFFFFFFFFFFFFFFFFFFFFFFFFFFFF AND PUSH32 0x805E1D667BDDB8A95F0F09880CF94F403FB596CE79928D9F29B74203BA284D4 PUSH1 0x40 MLOAD PUSH1 0x40 MLOAD DUP1 SWAP2 SUB SWAP1 LOG2 JUMP JUMPDEST PUSH1 0x0 PUSH1 0x4 SLOAD SWAP1 POP SWAP1 JUMP JUMPDEST PUSH1 0x0 PUSH2 0x650 PUSH1 0x40 MLOAD DUP1 PUSH1 0x20 ADD PUSH1 0x40 MSTORE DUP1 PUSH1 0x0 DUP2 MSTORE POP PUSH2 0x841 JUMP JUMPDEST POP SWAP1 POP DUP1 PUSH2 0x6BF JUMPI SELFBALANCE PUSH1 0x0 DUP1 SLOAD SWAP1 POP PUSH1 0x3 PUSH1 0x1E SWAP1 SLOAD SWAP1 PUSH2 0x100 EXP SWAP1 DIV PUSH1 0xFF AND PUSH1 0x1 DUP2 GT ISZERO PUSH2 0x681 JUMPI PUSH2 0x680 PUSH2 0xCCE JUMP JUMPDEST JUMPDEST PUSH1 0x40 MLOAD PUSH32 0x584327AA00000000000000000000000000000000000000000000000000000000 DUP2 MSTORE PUSH1 0x4 ADD PUSH2 0x6B6 SWAP4 SWAP3 SWAP2 SWAP1 PUSH2 0x135B JUMP JUMPDEST PUSH1 0x40 MLOAD DUP1 SWAP2 SUB SWAP1 REVERT JUMPDEST PUSH1 0x1 PUSH1 0x3 PUSH1 0x1E PUSH2 0x100 EXP DUP2 SLOAD DUP2 PUSH1 0xFF MUL NOT AND SWAP1 DUP4 PUSH1 0x1 DUP2 GT ISZERO PUSH2 0x6E5 JUMPI PUSH2 0x6E4 PUSH2 0xCCE JUMP JUMPDEST JUMPDEST MUL OR SWAP1 SSTORE POP PUSH1 0x0 PUSH32 0x0 PUSH20 0xFFFFFFFFFFFFFFFFFFFFFFFFFFFFFFFFFFFFFFFF AND PUSH4 0x5D3B1D30 PUSH1 0x2 SLOAD PUSH1 0x1 PUSH1 0x0 SWAP1 SLOAD SWAP1 PUSH2 0x100 EXP SWAP1 DIV PUSH8 0xFFFFFFFFFFFFFFFF AND PUSH1 0x3 PUSH1 0x0 SWAP1 SLOAD SWAP1 PUSH2 0x100 EXP SWAP1 DIV PUSH2 0xFFFF AND PUSH1 0x3 PUSH1 0x2 SWAP1 SLOAD SWAP1 PUSH2 0x100 EXP SWAP1 DIV PUSH4 0xFFFFFFFF AND PUSH1 0x3 PUSH1 0x6 SWAP1 SLOAD SWAP1 PUSH2 0x100 EXP SWAP1 DIV PUSH4 0xFFFFFFFF AND PUSH1 0x40 MLOAD DUP7 PUSH4 0xFFFFFFFF AND PUSH1 0xE0 SHL DUP2 MSTORE PUSH1 0x4 ADD PUSH2 0x799 SWAP6 SWAP5 SWAP4 SWAP3 SWAP2 SWAP1 PUSH2 0x1392 JUMP JUMPDEST PUSH1 0x20 PUSH1 0x40 MLOAD DUP1 DUP4 SUB DUP2 PUSH1 0x0 DUP8 GAS CALL ISZERO DUP1 ISZERO PUSH2 0x7B8 JUMPI RETURNDATASIZE PUSH1 0x0 DUP1 RETURNDATACOPY RETURNDATASIZE PUSH1 0x0 REVERT JUMPDEST POP POP POP POP PUSH1 0x40 MLOAD RETURNDATASIZE PUSH1 0x1F NOT PUSH1 0x1F DUP3 ADD AND DUP3 ADD DUP1 PUSH1 0x40 MSTORE POP DUP2 ADD SWAP1 PUSH2 0x7DC SWAP2 SWAP1 PUSH2 0x13FA JUMP JUMPDEST SWAP1 POP DUP1 PUSH32 0xDE6349B018D6C03D837B67D9A198A6BA4842546F2295FE963FAE141E5DBAEF81 PUSH1 0x40 MLOAD PUSH1 0x40 MLOAD DUP1 SWAP2 SUB SWAP1 LOG2 POP POP POP POP JUMP JUMPDEST PUSH1 0x2 SLOAD DUP2 JUMP JUMPDEST PUSH1 0x0 PUSH1 0x3 PUSH1 0xA SWAP1 SLOAD SWAP1 PUSH2 0x100 EXP SWAP1 DIV PUSH20 0xFFFFFFFFFFFFFFFFFFFFFFFFFFFFFFFFFFFFFFFF AND SWAP1 POP SWAP1 JUMP JUMPDEST PUSH1 0x0 PUSH1 0x60 PUSH1 0x0 PUSH1 0x3 PUSH1 0x1E SWAP1 SLOAD SWAP1 PUSH2 0x100 EXP SWAP1 DIV PUSH1 0xFF AND PUSH1 0x1 DUP2 GT ISZERO PUSH2 0x869 JUMPI PUSH2 0x868 PUSH2 0xCCE JUMP JUMPDEST JUMPDEST PUSH1 0x0 PUSH1 0x1 DUP2 GT ISZERO PUSH2 0x87D JUMPI PUSH2 0x87C PUSH2 0xCCE JUMP JUMPDEST JUMPDEST EQ SWAP1 POP PUSH1 0x0 PUSH32 0x0 PUSH1 0x4 SLOAD TIMESTAMP PUSH2 0x8B1 SWAP2 SWAP1 PUSH2 0x1456 JUMP JUMPDEST GT SWAP1 POP PUSH1 0x0 DUP1 PUSH1 0x0 DUP1 SLOAD SWAP1 POP GT SWAP1 POP PUSH1 0x0 DUP1 SELFBALANCE GT SWAP1 POP DUP4 DUP1 ISZERO PUSH2 0x8D1 JUMPI POP DUP3 JUMPDEST DUP1 ISZERO PUSH2 0x8DA JUMPI POP DUP2 JUMPDEST DUP1 ISZERO PUSH2 0x8E3 JUMPI POP DUP1 JUMPDEST SWAP6 POP DUP6 PUSH1 0x40 MLOAD DUP1 PUSH1 0x20 ADD PUSH1 0x40 MSTORE DUP1 PUSH1 0x0 DUP2 MSTORE POP SWAP6 POP SWAP6 POP POP POP POP POP SWAP2 POP SWAP2 JUMP JUMPDEST PUSH1 0x3 PUSH1 0x6 SWAP1 SLOAD SWAP1 PUSH2 0x100 EXP SWAP1 DIV PUSH4 0xFFFFFFFF AND DUP2 JUMP JUMPDEST PUSH1 0x1 PUSH1 0x0 SWAP1 SLOAD SWAP1 PUSH2 0x100 EXP SWAP1 DIV PUSH8 0xFFFFFFFFFFFFFFFF AND DUP2 JUMP JUMPDEST PUSH1 0x0 PUSH32 0x0 SWAP1 POP SWAP1 JUMP JUMPDEST PUSH1 0x3 PUSH1 0x0 SWAP1 SLOAD SWAP1 PUSH2 0x100 EXP SWAP1 DIV PUSH2 0xFFFF AND DUP2 JUMP JUMPDEST PUSH1 0x0 DUP1 DUP3 DUP2 SLOAD DUP2 LT PUSH2 0x984 JUMPI PUSH2 0x983 PUSH2 0x148A JUMP JUMPDEST JUMPDEST SWAP1 PUSH1 0x0 MSTORE PUSH1 0x20 PUSH1 0x0 KECCAK256 ADD PUSH1 0x0 SWAP1 SLOAD SWAP1 PUSH2 0x100 EXP SWAP1 DIV PUSH20 0xFFFFFFFFFFFFFFFFFFFFFFFFFFFFFFFFFFFFFFFF AND SWAP1 POP SWAP2 SWAP1 POP JUMP JUMPDEST PUSH1 0x0 DUP1 DUP1 SLOAD SWAP1 POP SWAP1 POP SWAP1 JUMP JUMPDEST PUSH1 0x0 DUP1 DUP1 SLOAD SWAP1 POP DUP3 PUSH1 0x0 DUP2 MLOAD DUP2 LT PUSH2 0x9DD JUMPI PUSH2 0x9DC PUSH2 0x148A JUMP JUMPDEST JUMPDEST PUSH1 0x20 MUL PUSH1 0x20 ADD ADD MLOAD PUSH2 0x9EF SWAP2 SWAP1 PUSH2 0x14E8 JUMP JUMPDEST SWAP1 POP PUSH1 0x0 DUP1 DUP3 DUP2 SLOAD DUP2 LT PUSH2 0xA06 JUMPI PUSH2 0xA05 PUSH2 0x148A JUMP JUMPDEST JUMPDEST SWAP1 PUSH1 0x0 MSTORE PUSH1 0x20 PUSH1 0x0 KECCAK256 ADD PUSH1 0x0 SWAP1 SLOAD SWAP1 PUSH2 0x100 EXP SWAP1 DIV PUSH20 0xFFFFFFFFFFFFFFFFFFFFFFFFFFFFFFFFFFFFFFFF AND SWAP1 POP DUP1 PUSH1 0x3 PUSH1 0xA PUSH2 0x100 EXP DUP2 SLOAD DUP2 PUSH20 0xFFFFFFFFFFFFFFFFFFFFFFFFFFFFFFFFFFFFFFFF MUL NOT AND SWAP1 DUP4 PUSH20 0xFFFFFFFFFFFFFFFFFFFFFFFFFFFFFFFFFFFFFFFF AND MUL OR SWAP1 SSTORE POP PUSH1 0x0 PUSH1 0x3 PUSH1 0x1E PUSH2 0x100 EXP DUP2 SLOAD DUP2 PUSH1 0xFF MUL NOT AND SWAP1 DUP4 PUSH1 0x1 DUP2 GT ISZERO PUSH2 0xA9A JUMPI PUSH2 0xA99 PUSH2 0xCCE JUMP JUMPDEST JUMPDEST MUL OR SWAP1 SSTORE POP PUSH1 0x0 PUSH8 0xFFFFFFFFFFFFFFFF DUP2 GT ISZERO PUSH2 0xABA JUMPI PUSH2 0xAB9 PUSH2 0xDB6 JUMP JUMPDEST JUMPDEST PUSH1 0x40 MLOAD SWAP1 DUP1 DUP3 MSTORE DUP1 PUSH1 0x20 MUL PUSH1 0x20 ADD DUP3 ADD PUSH1 0x40 MSTORE DUP1 ISZERO PUSH2 0xAE8 JUMPI DUP2 PUSH1 0x20 ADD PUSH1 0x20 DUP3 MUL DUP1 CALLDATASIZE DUP4 CALLDATACOPY DUP1 DUP3 ADD SWAP2 POP POP SWAP1 POP JUMPDEST POP PUSH1 0x0 SWAP1 DUP1 MLOAD SWAP1 PUSH1 0x20 ADD SWAP1 PUSH2 0xAFE SWAP3 SWAP2 SWAP1 PUSH2 0xBF3 JUMP JUMPDEST POP TIMESTAMP PUSH1 0x4 DUP2 SWAP1 SSTORE POP PUSH1 0x0 DUP2 PUSH20 0xFFFFFFFFFFFFFFFFFFFFFFFFFFFFFFFFFFFFFFFF AND SELFBALANCE PUSH1 0x40 MLOAD PUSH2 0xB2C SWAP1 PUSH2 0x154A JUMP JUMPDEST PUSH1 0x0 PUSH1 0x40 MLOAD DUP1 DUP4 SUB DUP2 DUP6 DUP8 GAS CALL SWAP3 POP POP POP RETURNDATASIZE DUP1 PUSH1 0x0 DUP2 EQ PUSH2 0xB69 JUMPI PUSH1 0x40 MLOAD SWAP2 POP PUSH1 0x1F NOT PUSH1 0x3F RETURNDATASIZE ADD AND DUP3 ADD PUSH1 0x40 MSTORE RETURNDATASIZE DUP3 MSTORE RETURNDATASIZE PUSH1 0x0 PUSH1 0x20 DUP5 ADD RETURNDATACOPY PUSH2 0xB6E JUMP JUMPDEST PUSH1 0x60 SWAP2 POP JUMPDEST POP POP SWAP1 POP DUP1 PUSH2 0xBA9 JUMPI PUSH1 0x40 MLOAD PUSH32 0xA1D04B3900000000000000000000000000000000000000000000000000000000 DUP2 MSTORE PUSH1 0x4 ADD PUSH1 0x40 MLOAD DUP1 SWAP2 SUB SWAP1 REVERT JUMPDEST DUP2 PUSH20 0xFFFFFFFFFFFFFFFFFFFFFFFFFFFFFFFFFFFFFFFF AND PUSH32 0x5B690EC4A06FE979403046EAEEA5B3CE38524683C3001F662C8B5A829632F7DF PUSH1 0x40 MLOAD PUSH1 0x40 MLOAD DUP1 SWAP2 SUB SWAP1 LOG2 POP POP POP POP POP JUMP JUMPDEST DUP3 DUP1 SLOAD DUP3 DUP3 SSTORE SWAP1 PUSH1 0x0 MSTORE PUSH1 0x20 PUSH1 0x0 KECCAK256 SWAP1 DUP2 ADD SWAP3 DUP3 ISZERO PUSH2 0xC6C JUMPI SWAP2 PUSH1 0x20 MUL DUP3 ADD JUMPDEST DUP3 DUP2 GT ISZERO PUSH2 0xC6B JUMPI DUP3 MLOAD DUP3 PUSH1 0x0 PUSH2 0x100 EXP DUP2 SLOAD DUP2 PUSH20 0xFFFFFFFFFFFFFFFFFFFFFFFFFFFFFFFFFFFFFFFF MUL NOT AND SWAP1 DUP4 PUSH20 0xFFFFFFFFFFFFFFFFFFFFFFFFFFFFFFFFFFFFFFFF AND MUL OR SWAP1 SSTORE POP SWAP2 PUSH1 0x20 ADD SWAP2 SWAP1 PUSH1 0x1 ADD SWAP1 PUSH2 0xC13 JUMP JUMPDEST JUMPDEST POP SWAP1 POP PUSH2 0xC79 SWAP2 SWAP1 PUSH2 0xC7D JUMP JUMPDEST POP SWAP1 JUMP JUMPDEST JUMPDEST DUP1 DUP3 GT ISZERO PUSH2 0xC96 JUMPI PUSH1 0x0 DUP2 PUSH1 0x0 SWAP1 SSTORE POP PUSH1 0x1 ADD PUSH2 0xC7E JUMP JUMPDEST POP SWAP1 JUMP JUMPDEST PUSH1 0x0 DUP2 SWAP1 POP SWAP2 SWAP1 POP JUMP JUMPDEST PUSH2 0xCAD DUP2 PUSH2 0xC9A JUMP JUMPDEST DUP3 MSTORE POP POP JUMP JUMPDEST PUSH1 0x0 PUSH1 0x20 DUP3 ADD SWAP1 POP PUSH2 0xCC8 PUSH1 0x0 DUP4 ADD DUP5 PUSH2 0xCA4 JUMP JUMPDEST SWAP3 SWAP2 POP POP JUMP JUMPDEST PUSH32 0x4E487B7100000000000000000000000000000000000000000000000000000000 PUSH1 0x0 MSTORE PUSH1 0x21 PUSH1 0x4 MSTORE PUSH1 0x24 PUSH1 0x0 REVERT JUMPDEST PUSH1 0x2 DUP2 LT PUSH2 0xD0E JUMPI PUSH2 0xD0D PUSH2 0xCCE JUMP JUMPDEST JUMPDEST POP JUMP JUMPDEST PUSH1 0x0 DUP2 SWAP1 POP PUSH2 0xD1F DUP3 PUSH2 0xCFD JUMP JUMPDEST SWAP2 SWAP1 POP JUMP JUMPDEST PUSH1 0x0 PUSH2 0xD2F DUP3 PUSH2 0xD11 JUMP JUMPDEST SWAP1 POP SWAP2 SWAP1 POP JUMP JUMPDEST PUSH2 0xD3F DUP2 PUSH2 0xD24 JUMP JUMPDEST DUP3 MSTORE POP POP JUMP JUMPDEST PUSH1 0x0 PUSH1 0x20 DUP3 ADD SWAP1 POP PUSH2 0xD5A PUSH1 0x0 DUP4 ADD DUP5 PUSH2 0xD36 JUMP JUMPDEST SWAP3 SWAP2 POP POP JUMP JUMPDEST PUSH1 0x0 PUSH1 0x40 MLOAD SWAP1 POP SWAP1 JUMP JUMPDEST PUSH1 0x0 DUP1 REVERT JUMPDEST PUSH1 0x0 DUP1 REVERT JUMPDEST PUSH2 0xD7D DUP2 PUSH2 0xC9A JUMP JUMPDEST DUP2 EQ PUSH2 0xD88 JUMPI PUSH1 0x0 DUP1 REVERT JUMPDEST POP JUMP JUMPDEST PUSH1 0x0 DUP2 CALLDATALOAD SWAP1 POP PUSH2 0xD9A DUP2 PUSH2 0xD74 JUMP JUMPDEST SWAP3 SWAP2 POP POP JUMP JUMPDEST PUSH1 0x0 DUP1 REVERT JUMPDEST PUSH1 0x0 PUSH1 0x1F NOT PUSH1 0x1F DUP4 ADD AND SWAP1 POP SWAP2 SWAP1 POP JUMP JUMPDEST PUSH32 0x4E487B7100000000000000000000000000000000000000000000000000000000 PUSH1 0x0 MSTORE PUSH1 0x41 PUSH1 0x4 MSTORE PUSH1 0x24 PUSH1 0x0 REVERT JUMPDEST PUSH2 0xDEE DUP3 PUSH2 0xDA5 JUMP JUMPDEST DUP2 ADD DUP2 DUP2 LT PUSH8 0xFFFFFFFFFFFFFFFF DUP3 GT OR ISZERO PUSH2 0xE0D JUMPI PUSH2 0xE0C PUSH2 0xDB6 JUMP JUMPDEST JUMPDEST DUP1 PUSH1 0x40 MSTORE POP POP POP JUMP JUMPDEST PUSH1 0x0 PUSH2 0xE20 PUSH2 0xD60 JUMP JUMPDEST SWAP1 POP PUSH2 0xE2C DUP3 DUP3 PUSH2 0xDE5 JUMP JUMPDEST SWAP2 SWAP1 POP JUMP JUMPDEST PUSH1 0x0 PUSH8 0xFFFFFFFFFFFFFFFF DUP3 GT ISZERO PUSH2 0xE4C JUMPI PUSH2 0xE4B PUSH2 0xDB6 JUMP JUMPDEST JUMPDEST PUSH1 0x20 DUP3 MUL SWAP1 POP PUSH1 0x20 DUP2 ADD SWAP1 POP SWAP2 SWAP1 POP JUMP JUMPDEST PUSH1 0x0 DUP1 REVERT JUMPDEST PUSH1 0x0 PUSH2 0xE75 PUSH2 0xE70 DUP5 PUSH2 0xE31 JUMP JUMPDEST PUSH2 0xE16 JUMP JUMPDEST SWAP1 POP DUP1 DUP4 DUP3 MSTORE PUSH1 0x20 DUP3 ADD SWAP1 POP PUSH1 0x20 DUP5 MUL DUP4 ADD DUP6 DUP2 GT ISZERO PUSH2 0xE98 JUMPI PUSH2 0xE97 PUSH2 0xE5D JUMP JUMPDEST JUMPDEST DUP4 JUMPDEST DUP2 DUP2 LT ISZERO PUSH2 0xEC1 JUMPI DUP1 PUSH2 0xEAD DUP9 DUP3 PUSH2 0xD8B JUMP JUMPDEST DUP5 MSTORE PUSH1 0x20 DUP5 ADD SWAP4 POP POP PUSH1 0x20 DUP2 ADD SWAP1 POP PUSH2 0xE9A JUMP JUMPDEST POP POP POP SWAP4 SWAP3 POP POP POP JUMP JUMPDEST PUSH1 0x0 DUP3 PUSH1 0x1F DUP4 ADD SLT PUSH2 0xEE0 JUMPI PUSH2 0xEDF PUSH2 0xDA0 JUMP JUMPDEST JUMPDEST DUP2 CALLDATALOAD PUSH2 0xEF0 DUP5 DUP3 PUSH1 0x20 DUP7 ADD PUSH2 0xE62 JUMP JUMPDEST SWAP2 POP POP SWAP3 SWAP2 POP POP JUMP JUMPDEST PUSH1 0x0 DUP1 PUSH1 0x40 DUP4 DUP6 SUB SLT ISZERO PUSH2 0xF10 JUMPI PUSH2 0xF0F PUSH2 0xD6A JUMP JUMPDEST JUMPDEST PUSH1 0x0 PUSH2 0xF1E DUP6 DUP3 DUP7 ADD PUSH2 0xD8B JUMP JUMPDEST SWAP3 POP POP PUSH1 0x20 DUP4 ADD CALLDATALOAD PUSH8 0xFFFFFFFFFFFFFFFF DUP2 GT ISZERO PUSH2 0xF3F JUMPI PUSH2 0xF3E PUSH2 0xD6F JUMP JUMPDEST JUMPDEST PUSH2 0xF4B DUP6 DUP3 DUP7 ADD PUSH2 0xECB JUMP JUMPDEST SWAP2 POP POP SWAP3 POP SWAP3 SWAP1 POP JUMP JUMPDEST PUSH1 0x0 PUSH4 0xFFFFFFFF DUP3 AND SWAP1 POP SWAP2 SWAP1 POP JUMP JUMPDEST PUSH2 0xF6E DUP2 PUSH2 0xF55 JUMP JUMPDEST DUP3 MSTORE POP POP JUMP JUMPDEST PUSH1 0x0 PUSH1 0x20 DUP3 ADD SWAP1 POP PUSH2 0xF89 PUSH1 0x0 DUP4 ADD DUP5 PUSH2 0xF65 JUMP JUMPDEST SWAP3 SWAP2 POP POP JUMP JUMPDEST PUSH1 0x0 DUP1 REVERT JUMPDEST PUSH1 0x0 DUP1 DUP4 PUSH1 0x1F DUP5 ADD SLT PUSH2 0xFAA JUMPI PUSH2 0xFA9 PUSH2 0xDA0 JUMP JUMPDEST JUMPDEST DUP3 CALLDATALOAD SWAP1 POP PUSH8 0xFFFFFFFFFFFFFFFF DUP2 GT ISZERO PUSH2 0xFC7 JUMPI PUSH2 0xFC6 PUSH2 0xF8F JUMP JUMPDEST JUMPDEST PUSH1 0x20 DUP4 ADD SWAP2 POP DUP4 PUSH1 0x1 DUP3 MUL DUP4 ADD GT ISZERO PUSH2 0xFE3 JUMPI PUSH2 0xFE2 PUSH2 0xE5D JUMP JUMPDEST JUMPDEST SWAP3 POP SWAP3 SWAP1 POP JUMP JUMPDEST PUSH1 0x0 DUP1 PUSH1 0x20 DUP4 DUP6 SUB SLT ISZERO PUSH2 0x1001 JUMPI PUSH2 0x1000 PUSH2 0xD6A JUMP JUMPDEST JUMPDEST PUSH1 0x0 DUP4 ADD CALLDATALOAD PUSH8 0xFFFFFFFFFFFFFFFF DUP2 GT ISZERO PUSH2 0x101F JUMPI PUSH2 0x101E PUSH2 0xD6F JUMP JUMPDEST JUMPDEST PUSH2 0x102B DUP6 DUP3 DUP7 ADD PUSH2 0xF94 JUMP JUMPDEST SWAP3 POP SWAP3 POP POP SWAP3 POP SWAP3 SWAP1 POP JUMP JUMPDEST PUSH1 0x0 DUP2 SWAP1 POP SWAP2 SWAP1 POP JUMP JUMPDEST PUSH2 0x104A DUP2 PUSH2 0x1037 JUMP JUMPDEST DUP3 MSTORE POP POP JUMP JUMPDEST PUSH1 0x0 PUSH1 0x20 DUP3 ADD SWAP1 POP PUSH2 0x1065 PUSH1 0x0 DUP4 ADD DUP5 PUSH2 0x1041 JUMP JUMPDEST SWAP3 SWAP2 POP POP JUMP JUMPDEST PUSH1 0x0 PUSH20 0xFFFFFFFFFFFFFFFFFFFFFFFFFFFFFFFFFFFFFFFF DUP3 AND SWAP1 POP SWAP2 SWAP1 POP JUMP JUMPDEST PUSH1 0x0 PUSH2 0x1096 DUP3 PUSH2 0x106B JUMP JUMPDEST SWAP1 POP SWAP2 SWAP1 POP JUMP JUMPDEST PUSH2 0x10A6 DUP2 PUSH2 0x108B JUMP JUMPDEST DUP3 MSTORE POP POP JUMP JUMPDEST PUSH1 0x0 PUSH1 0x20 DUP3 ADD SWAP1 POP PUSH2 0x10C1 PUSH1 0x0 DUP4 ADD DUP5 PUSH2 0x109D JUMP JUMPDEST SWAP3 SWAP2 POP POP JUMP JUMPDEST PUSH1 0x0 DUP1 REVERT JUMPDEST PUSH1 0x0 PUSH8 0xFFFFFFFFFFFFFFFF DUP3 GT ISZERO PUSH2 0x10E7 JUMPI PUSH2 0x10E6 PUSH2 0xDB6 JUMP JUMPDEST JUMPDEST PUSH2 0x10F0 DUP3 PUSH2 0xDA5 JUMP JUMPDEST SWAP1 POP PUSH1 0x20 DUP2 ADD SWAP1 POP SWAP2 SWAP1 POP JUMP JUMPDEST DUP3 DUP2 DUP4 CALLDATACOPY PUSH1 0x0 DUP4 DUP4 ADD MSTORE POP POP POP JUMP JUMPDEST PUSH1 0x0 PUSH2 0x111F PUSH2 0x111A DUP5 PUSH2 0x10CC JUMP JUMPDEST PUSH2 0xE16 JUMP JUMPDEST SWAP1 POP DUP3 DUP2 MSTORE PUSH1 0x20 DUP2 ADD DUP5 DUP5 DUP5 ADD GT ISZERO PUSH2 0x113B JUMPI PUSH2 0x113A PUSH2 0x10C7 JUMP JUMPDEST JUMPDEST PUSH2 0x1146 DUP5 DUP3 DUP6 PUSH2 0x10FD JUMP JUMPDEST POP SWAP4 SWAP3 POP POP POP JUMP JUMPDEST PUSH1 0x0 DUP3 PUSH1 0x1F DUP4 ADD SLT PUSH2 0x1163 JUMPI PUSH2 0x1162 PUSH2 0xDA0 JUMP JUMPDEST JUMPDEST DUP2 CALLDATALOAD PUSH2 0x1173 DUP5 DUP3 PUSH1 0x20 DUP7 ADD PUSH2 0x110C JUMP JUMPDEST SWAP2 POP POP SWAP3 SWAP2 POP POP JUMP JUMPDEST PUSH1 0x0 PUSH1 0x20 DUP3 DUP5 SUB SLT ISZERO PUSH2 0x1192 JUMPI PUSH2 0x1191 PUSH2 0xD6A JUMP JUMPDEST JUMPDEST PUSH1 0x0 DUP3 ADD CALLDATALOAD PUSH8 0xFFFFFFFFFFFFFFFF DUP2 GT ISZERO PUSH2 0x11B0 JUMPI PUSH2 0x11AF PUSH2 0xD6F JUMP JUMPDEST JUMPDEST PUSH2 0x11BC DUP5 DUP3 DUP6 ADD PUSH2 0x114E JUMP JUMPDEST SWAP2 POP POP SWAP3 SWAP2 POP POP JUMP JUMPDEST PUSH1 0x0 DUP2 ISZERO ISZERO SWAP1 POP SWAP2 SWAP1 POP JUMP JUMPDEST PUSH2 0x11DA DUP2 PUSH2 0x11C5 JUMP JUMPDEST DUP3 MSTORE POP POP JUMP JUMPDEST PUSH1 0x0 DUP2 MLOAD SWAP1 POP SWAP2 SWAP1 POP JUMP JUMPDEST PUSH1 0x0 DUP3 DUP3 MSTORE PUSH1 0x20 DUP3 ADD SWAP1 POP SWAP3 SWAP2 POP POP JUMP JUMPDEST PUSH1 0x0 JUMPDEST DUP4 DUP2 LT ISZERO PUSH2 0x121A JUMPI DUP1 DUP3 ADD MLOAD DUP2 DUP5 ADD MSTORE PUSH1 0x20 DUP2 ADD SWAP1 POP PUSH2 0x11FF JUMP JUMPDEST PUSH1 0x0 DUP5 DUP5 ADD MSTORE POP POP POP POP JUMP JUMPDEST PUSH1 0x0 PUSH2 0x1231 DUP3 PUSH2 0x11E0 JUMP JUMPDEST PUSH2 0x123B DUP2 DUP6 PUSH2 0x11EB JUMP JUMPDEST SWAP4 POP PUSH2 0x124B DUP2 DUP6 PUSH1 0x20 DUP7 ADD PUSH2 0x11FC JUMP JUMPDEST PUSH2 0x1254 DUP2 PUSH2 0xDA5 JUMP JUMPDEST DUP5 ADD SWAP2 POP POP SWAP3 SWAP2 POP POP JUMP JUMPDEST PUSH1 0x0 PUSH1 0x40 DUP3 ADD SWAP1 POP PUSH2 0x1274 PUSH1 0x0 DUP4 ADD DUP6 PUSH2 0x11D1 JUMP JUMPDEST DUP2 DUP2 SUB PUSH1 0x20 DUP4 ADD MSTORE PUSH2 0x1286 DUP2 DUP5 PUSH2 0x1226 JUMP JUMPDEST SWAP1 POP SWAP4 SWAP3 POP POP POP JUMP JUMPDEST PUSH1 0x0 PUSH8 0xFFFFFFFFFFFFFFFF DUP3 AND SWAP1 POP SWAP2 SWAP1 POP JUMP JUMPDEST PUSH2 0x12AC DUP2 PUSH2 0x128F JUMP JUMPDEST DUP3 MSTORE POP POP JUMP JUMPDEST PUSH1 0x0 PUSH1 0x20 DUP3 ADD SWAP1 POP PUSH2 0x12C7 PUSH1 0x0 DUP4 ADD DUP5 PUSH2 0x12A3 JUMP JUMPDEST SWAP3 SWAP2 POP POP JUMP JUMPDEST PUSH1 0x0 PUSH2 0xFFFF DUP3 AND SWAP1 POP SWAP2 SWAP1 POP JUMP JUMPDEST PUSH2 0x12E4 DUP2 PUSH2 0x12CD JUMP JUMPDEST DUP3 MSTORE POP POP JUMP JUMPDEST PUSH1 0x0 PUSH1 0x20 DUP3 ADD SWAP1 POP PUSH2 0x12FF PUSH1 0x0 DUP4 ADD DUP5 PUSH2 0x12DB JUMP JUMPDEST SWAP3 SWAP2 POP POP JUMP JUMPDEST PUSH1 0x0 PUSH1 0x20 DUP3 DUP5 SUB SLT ISZERO PUSH2 0x131B JUMPI PUSH2 0x131A PUSH2 0xD6A JUMP JUMPDEST JUMPDEST PUSH1 0x0 PUSH2 0x1329 DUP5 DUP3 DUP6 ADD PUSH2 0xD8B JUMP JUMPDEST SWAP2 POP POP SWAP3 SWAP2 POP POP JUMP JUMPDEST PUSH1 0x0 PUSH1 0x40 DUP3 ADD SWAP1 POP PUSH2 0x1347 PUSH1 0x0 DUP4 ADD DUP6 PUSH2 0x109D JUMP JUMPDEST PUSH2 0x1354 PUSH1 0x20 DUP4 ADD DUP5 PUSH2 0x109D JUMP JUMPDEST SWAP4 SWAP3 POP POP POP JUMP JUMPDEST PUSH1 0x0 PUSH1 0x60 DUP3 ADD SWAP1 POP PUSH2 0x1370 PUSH1 0x0 DUP4 ADD DUP7 PUSH2 0xCA4 JUMP JUMPDEST PUSH2 0x137D PUSH1 0x20 DUP4 ADD DUP6 PUSH2 0xCA4 JUMP JUMPDEST PUSH2 0x138A PUSH1 0x40 DUP4 ADD DUP5 PUSH2 0xCA4 JUMP JUMPDEST SWAP5 SWAP4 POP POP POP POP JUMP JUMPDEST PUSH1 0x0 PUSH1 0xA0 DUP3 ADD SWAP1 POP PUSH2 0x13A7 PUSH1 0x0 DUP4 ADD DUP9 PUSH2 0x1041 JUMP JUMPDEST PUSH2 0x13B4 PUSH1 0x20 DUP4 ADD DUP8 PUSH2 0x12A3 JUMP JUMPDEST PUSH2 0x13C1 PUSH1 0x40 DUP4 ADD DUP7 PUSH2 0x12DB JUMP JUMPDEST PUSH2 0x13CE PUSH1 0x60 DUP4 ADD DUP6 PUSH2 0xF65 JUMP JUMPDEST PUSH2 0x13DB PUSH1 0x80 DUP4 ADD DUP5 PUSH2 0xF65 JUMP JUMPDEST SWAP7 SWAP6 POP POP POP POP POP POP JUMP JUMPDEST PUSH1 0x0 DUP2 MLOAD SWAP1 POP PUSH2 0x13F4 DUP2 PUSH2 0xD74 JUMP JUMPDEST SWAP3 SWAP2 POP POP JUMP JUMPDEST PUSH1 0x0 PUSH1 0x20 DUP3 DUP5 SUB SLT ISZERO PUSH2 0x1410 JUMPI PUSH2 0x140F PUSH2 0xD6A JUMP JUMPDEST JUMPDEST PUSH1 0x0 PUSH2 0x141E DUP5 DUP3 DUP6 ADD PUSH2 0x13E5 JUMP JUMPDEST SWAP2 POP POP SWAP3 SWAP2 POP POP JUMP JUMPDEST PUSH32 0x4E487B7100000000000000000000000000000000000000000000000000000000 PUSH1 0x0 MSTORE PUSH1 0x11 PUSH1 0x4 MSTORE PUSH1 0x24 PUSH1 0x0 REVERT JUMPDEST PUSH1 0x0 PUSH2 0x1461 DUP3 PUSH2 0xC9A JUMP JUMPDEST SWAP2 POP PUSH2 0x146C DUP4 PUSH2 0xC9A JUMP JUMPDEST SWAP3 POP DUP3 DUP3 SUB SWAP1 POP DUP2 DUP2 GT ISZERO PUSH2 0x1484 JUMPI PUSH2 0x1483 PUSH2 0x1427 JUMP JUMPDEST JUMPDEST SWAP3 SWAP2 POP POP JUMP JUMPDEST PUSH32 0x4E487B7100000000000000000000000000000000000000000000000000000000 PUSH1 0x0 MSTORE PUSH1 0x32 PUSH1 0x4 MSTORE PUSH1 0x24 PUSH1 0x0 REVERT JUMPDEST PUSH32 0x4E487B7100000000000000000000000000000000000000000000000000000000 PUSH1 0x0 MSTORE PUSH1 0x12 PUSH1 0x4 MSTORE PUSH1 0x24 PUSH1 0x0 REVERT JUMPDEST PUSH1 0x0 PUSH2 0x14F3 DUP3 PUSH2 0xC9A JUMP JUMPDEST SWAP2 POP PUSH2 0x14FE DUP4 PUSH2 0xC9A JUMP JUMPDEST SWAP3 POP DUP3 PUSH2 0x150E JUMPI PUSH2 0x150D PUSH2 0x14B9 JUMP JUMPDEST JUMPDEST DUP3 DUP3 MOD SWAP1 POP SWAP3 SWAP2 POP POP JUMP JUMPDEST PUSH1 0x0 DUP2 SWAP1 POP SWAP3 SWAP2 POP POP JUMP JUMPDEST POP JUMP JUMPDEST PUSH1 0x0 PUSH2 0x1534 PUSH1 0x0 DUP4 PUSH2 0x1519 JUMP JUMPDEST SWAP2 POP PUSH2 0x153F DUP3 PUSH2 0x1524 JUMP JUMPDEST PUSH1 0x0 DUP3 ADD SWAP1 POP SWAP2 SWAP1 POP JUMP JUMPDEST PUSH1 0x0 PUSH2 0x1555 DUP3 PUSH2 0x1527 JUMP JUMPDEST SWAP2 POP DUP2 SWAP1 POP SWAP2 SWAP1 POP JUMP INVALID LOG2 PUSH5 0x6970667358 0x22 SLT KECCAK256 DUP10 0x29 PUSH7 0x121ED9FC7CA2AC CALLER LOG1 PUSH21 0xA063FDE7FE761640339588096918E62F6001566473 PUSH16 0x6C634300081B00330000000000000000 "
        },
        "methodIdentifiers": {
          "callbackGasLimit()": "24f74697",
          "checkUpkeep(bytes)": "6e04ff0d",
          "enterRaffle()": "2cfcc539",
          "getEntranceFee()": "09bc33a7",
          "getInterval()": "91ad27b4",
          "getLatestTimeStamp()": "320229eb",
          "getNumberOfPlayers()": "fd6673f5",
          "getPlayer(uint256)": "e55ae4e8",
          "getRaffleState()": "115cbaf5",
          "getRecentWinner()": "473f1ddc",
          "numWords()": "7ccfd7fc",
          "performUpkeep(bytes)": "4585e33b",
          "rawFulfillRandomWords(uint256,uint256[])": "1fe543e3",
          "requestConfirmations()": "b0fb162f",
          "s_keyHash()": "45bb327b",
          "s_subscriptionId()": "8ac00021"
        }
      }
    }
  }
}